:020000040000FA
:10000000080A00206D020000810200008302000047
:10001000850200008502000085020000000000004B
:100020000000000000000000000000008502000049
:10003000850200000000000085020000A9190000F0
:100040008502000085020000850200008502000094
:100050008502000085020000850200008502000084
:100060008502000085020000850200008502000074
:100070008502000085020000850200008502000064
:100080008502000085020000490E00008502000084
:100090008502000085020000850200008502000044
:1000A0008502000085020000850200008502000034
:1000B0008502000085020000850200008502000024
:1000C0008502000085020000850200008502000014
:1000D00085020000850200008502000099030000EF
:1000E000F303000000000000000000008502000093
:1000F00085020000850200008502000085020000E4
:1001000085020000850200008502000085020000D3
:1001100000000000000000008502000085020000D1
:1001200085020000850200008502000085020000B3
:1001300085020000850200008502000085020000A3
:1001400000000000000000000000000000000000AF
:100150008502000085020000850200008502000083
:10016000000000000000000000000000000000008F
:10017000000000000000000000000000000000007F
:10018000000000000000000000000000000000006F
:10019000000000000000000000000000000000005F
:1001A000000000000000000000000000000000004F
:1001B0008502000085020000850200008502000023
:1001C0008502000085020000850200008502000013
:1001D0008502000085020000850200008502000003
:1001E000850200008502000085020000000000007A
:1001F000000000008502000085020000850200006A
:1002000085020000850200000000000000000000E0
:1002100085020000850200008502000085020000C2
:1002200085020000850200008502000085020000B2
:1002300085020000850200008502000085020000A2
:100240008502000085020000850200008502000092
:100250008502000085020000850200008502000082
:100260008502000085020000850200004EF68850DD
:10027000CEF20000016841F47001016000F004B8A2
:10028000FEE7FEE7FEE7000000F002F800F05CF891
:100290000AA090E8000C82448344AAF10107DA45E1
:1002A00001D100F051F8AFF2090EBAE80F0013F0D7
:1002B000010F18BFFB1A43F001031847A46C00009C
:1002C000C46C00000A444FF0000C10F8013B13F01E
:1002D000070408BF10F8014B1D1108BF10F8015B9F
:1002E000641E05D010F8016B641E01F8016BF9D192
:1002F00013F0080F1EBF10F8014BAD1C0C1B09D1E9
:100300006D1E58BF01F801CBFAD505E014F8016B5A
:1003100001F8016B6D1EF9D59142D6D370470000EC
:100320000023002400250026103A28BF78C1FBD8FE
:10033000520728BF30C148BF0B6070471FB502F09D
:1003400067F81FBD10B510BD01F049FB1146FFF75E
:10035000F5FF00F001FF01F067FB03B4FFF7F2FFC8
:1003600003BC01F06BFB00000138FDD170470000B9
:10037000EFF3108072B67047EFF310807047EFF321
:10038000108062B6704730BF704780F311887047A5
:10039000EFF31180704700002DE9F041C34F0021B9
:1003A000384601F0C8FB0125C14E044617280CD081
:1003B0000021384601F03FFD000600D5357021468A
:1003C0003846BDE8F04101F09FBB0123B94A17212F
:1003D000384601F0C0FBB648173000780528EED14A
:1003E000B349B54A7570C91C127A88781043887071
:1003F000E5E72DE9F041B14F0021384601F09BFBC4
:100400000125AB4E04460E280CD00021384601F0E1
:1004100012FD000600D5357021463846BDE8F04192
:1004200001F072BBA34A0123C8320E21384601F005
:1004300092FB9F483F300078AA28EDD19C499E4A04
:10044000B570C91C127A887810438870E4E72DE9EA
:10045000F047984816214FF0FF360A2780E8C2007F
:10046000934908241731C0E90341DFF8409202465E
:1004700002231721484601F02BFC8E4807215030FB
:10048000024680E8C2008A4902234731C0E903419D
:100490000721484601F01CFC86480621143000253F
:1004A000C0E90015824985601F31C0E9034114305D
:1004B0000C21016045608560C4607E497C4828311C
:1004C0002F3008613C310920086008460A46466022
:1004D0008760C460764802234F300861092148468E
:1004E00001F0F6FB734873493C303C3104604560D1
:1004F0008560C4606E48DFF8B8810F3008613C3118
:100500000B200860084608F1570846608760C46001
:100510000246C1F8108002231221484601F0D8FBA0
:10052000644916208C31DFF8949108600846022354
:1005300045608560C460A8F1500008615D480621EF
:10054000A030024680E8C200A8F13001C0E90341B2
:100550000C21484601F0BCFB56480C21B430024641
:1005600080E8C200A8F12001C0E90341022315215F
:10057000484601F0ADFB4F480721DC300223C0E9BB
:100580000015A8F110018560C0E90341143808394D
:1005900080E8D000C0E9034102460E21484601F040
:1005A00097FB44480921F030C0E90015A8F1080183
:1005B0008560C0E903410B211430C0E90015C0F883
:1005C0001080C0E90254BDE8F08770B53C4801F0E6
:1005D000CBFE3C4801F002FD3B4801F0FFFC30211E
:1005E0003A4801F020FD3A4801F0BEFE2F4D284662
:1005F00001F069FA01F07EFD364C0146224628469C
:1006000001F024FA284601F059FA0A21284601F09F
:100610008EFA2B48001F01F0A7FE082001F0DEFC37
:100620004FF4816001F0DAFC03214FF0402001F02B
:10063000FAFC2748401C01F097FE204D284601F0A7
:1006400042FA01F057FD01462246284601F0FEF924
:10065000284601F033FA0A21284601F068FAFFF72C
:10066000F6FE134900200870372001F009FDBDE8AF
:100670007040382001F004BD0E4A10B500233C3212
:100680000E210A4801F024FB13494FF496700860CC
:1006900010BD084A10B500238C321721074801F01D
:1006A00017FB0E494FF49670086010BD000004401F
:1006B00000000020D8030020783300000010044020
:1006C000040800F008100400081404000040024070
:1006D000003400F0A08601002C0100203001002031
:1006E000D74AD84900201071087048700C31D64B99
:1006F000087002F110010B60D44B4B60D449487074
:100700008870D4490A200860D348D0607047CC482C
:10071000FF21017041708170C1707047F8B5C84CFD
:10072000C84D803DE26805F1400602B32079F0B97A
:1007300000208DF800000CE09DF8001045F8210025
:100740009DF8001046F821009DF80010491C8DF816
:1007500000109DF800101029EED302B19047B84F59
:100760001037386800B18047786800B18047217938
:1007700035F82100C043020A2270607036F821006B
:10078000C043010AA170E070F8BD2DE9F843FFF7FE
:10079000C5FFB24CFF221146204601F06EFCB04F5F
:1007A00020221146384601F068FC00258DF80050E3
:1007B00004E09DF80000401C8DF800009DF800004A
:1007C0006428F6D300222021384601F056FC8DF82B
:1007D000005004E09DF80000401C8DF800009DF8DA
:1007E00000006428F6D3FF221146204601F045FCA4
:1007F00010221146384601F040FC8DF8005004E00C
:100800009DF80000401C8DF800009DF80000642851
:10081000F6D300221021384601F02FFC8DF800504D
:1008200004E09DF80000401C8DF800009DF80000D9
:100830006428F6D3824EFF212046327801F01DFC59
:1008400004221146384601F018FC8DF8005004E0EF
:100850009DF80000401C8DF800009DF80000642801
:10086000F6D300220421384601F007FC8DF8005031
:1008700004E09DF80000401C8DF800009DF8000089
:100880006428F6D37278FF21204601F0F6FB082297
:100890001146384601F0F1FB8DF8005004E09DF858
:1008A0000000401C8DF800009DF800006428F6D37D
:1008B00000220821384601F0E0FB8DF8005004E0EA
:1008C0009DF80000401C8DF800009DF80000642891
:1008D000F6D3B278FF21204601F0CFFB012211466A
:1008E000384601F0CAFB8DF8005004E09DF8000086
:1008F000401C8DF800009DF800006428F6D300220B
:100900000121384601F0B9FB8DF8005004E09DF854
:100910000000401C8DF800009DF800006428F6D30C
:10092000F278FF21A046204601F0A7FB02221146E3
:10093000384601F0A2FB8DF8005004E09DF800005D
:10094000401C8DF800009DF800006428F6D30022BA
:100950000221384601F091FB8DF8005004E09DF82B
:100960000000401C8DF800009DF800006428F6D3BC
:100970003C48317950F82100C443B068401CB06055
:100980000A2800D3B5603349B068096888424ED858
:10099000E2B2FF21404601F070FB202211463846AA
:1009A00001F06BFB8DF8005004E09DF80000401C46
:1009B0008DF800009DF800006428F6D30022202165
:1009C000384601F05AFB8DF8005004E09DF8000015
:1009D000401C8DF800009DF800006428F6D3C4F395
:1009E0000722FF21404601F048FB102211463846FD
:1009F00001F043FB8DF8005004E09DF80000401C1E
:100A00008DF800009DF800006428F6D30022102124
:100A1000384601F032FB8DF8005004E09DF80000EC
:100A2000401C8DF800009DF800006428F6D3307952
:100A3000401CC0B230710F2800D93571BDE8F88371
:100A4000C000002070050020B91700001F1600002C
:100A50000300002038010020631400000050004013
:100A600000600240783300002DE9F041FF21E248A8
:100A700001F0D6FAE24CE14D0002617845F8210020
:100A800054214FF0402001F0CBFA66784FF65477AE
:100A900055F826100843384045F8260029680120FB
:100AA0000A4655F82030401C19431A40C0B20428A9
:100AB000F7D3E069761C27EA00000840104327EAD4
:100AC0000000E061F0B26070042801D30020607083
:100AD000BDE8F08170472DE9F047CA4C2078002529
:100AE000012809D1C84801F053FCC748401C01F057
:100AF0004FFCFFF76AFD2570C14EDFF8108301241B
:100B0000F06CD8B9FFF7B0FFD6E90701884213D0DF
:100B1000D8F81810BE4B014200D01C70D8F808104D
:100B2000014000D00121D8F81020024000D001225D
:100B3000114300D01D7030621920F064D8F83C10C9
:100B4000F0694FF00A07014202D13473F76202E004
:100B5000F16A01B93573D8F83810014202D17473C3
:100B6000376302E0316B01B97573D8F83410014274
:100B700002D1B473776302E0716B01B9B573D8F831
:100B80001810014202D0F472F76502E0F16D01B96C
:100B9000F572A049A04A0968137858F82330194221
:100BA00001D0B47200E0B5729C491378096858F816
:100BB0002330194200D0347298491378496858F8A4
:100BC0002330194200D0747295491378096858F897
:100BD0002330194201D1012100E00021736AEBB1F9
:100BE0000023194301D0357235718D491278496857
:100BF00058F82220114201D1012100E00021B26AFF
:100C000072B10022114301D075727571D8F80810C5
:100C10004FF0B402014205D0347104E00123E0E753
:100C20000122EFE77262D8F81010014201D074710E
:100C300000E0B262307A012800D000203179012929
:100C400000D00021084301D0B47000E0B570707A84
:100C5000012800D000207179012900D0002108432B
:100C600001D0F47000E0F570B078012803D1706A0B
:100C700008B1B47100E0B571F078012803D1B06A11
:100C800008B1F47100E0F571DFF898A10121504638
:100C900001F0C6F9DFF89091DFF8908130B134743B
:100CA0000221504601F0BCF908B903E03574C8F8D8
:100CB000009002E05E49C8F800105E49887800B1F3
:100CC00001204978F27B914201D0012100E000210E
:100CD000084301D0032030653766BDE8F08770B562
:100CE000474C4A4D606E10B1401E606618D15249A3
:100CF0002078504A11F830305370AB69E6693342BE
:100D000001D0FF23537001EBC001401C4B7893705E
:100D10004968C0B261662070042801D301202070A8
:100D2000FFF733FD606D28B92869E169084201D0F9
:100D3000FFF7A2FCA06D28B9A868E169084201D0BC
:100D4000FFF7A7FCA0690021401CA061022837D34F
:100D50003A4A106808B1401E1060394A106808B15C
:100D6000401E1060374A106808B1401E1060E06CE9
:100D700008B1401EE064E06D08B1401EE065E06A25
:100D800008B1401EE062206B08B1401E2063606B1A
:100D900008B1401E6063A06B08B1401EA063E06B09
:100DA00008B1401EE063206C08B1401E2064606CF6
:100DB00008B1401E6064A06C08B1401EA064A1612F
:100DC000606D08B1401E6065A06D08B1401EA06551
:100DD0006069401C6061B0F5FA6F0CD3606A08B1BD
:100DE000401E6062A06A08B1401EA062206D08B17A
:100DF000401E2065616170BD0070004094050020B8
:100E0000D800002000000020003400F078330000FB
:100E1000600000204F0000205F00002047000020FD
:100E2000570000200050024089180000CC0000202C
:100E3000631400000300002050310000B4000020C3
:100E4000B8000020BC00002010B5C74C207818B9AD
:100E50004FF0804001F0D2FA0120207010BD10B593
:100E60004FF0704001F080FA222001F009F901F002
:100E700041F901464FF08044204601F0C2FA204675
:100E800001F0C1FA2046BDE8104001F0B2BA2DE9E8
:100E9000F843B64801F0D8F9B54801F065FAB4480E
:100EA000801C01F061FAB248401D01F05DFAB048C3
:100EB000401E01F059FAAE48001D01F055FAAD4E42
:100EC000FF21304601F0CBF8AB4D3F21284601F021
:100ED000C6F84FF04028A821404601F0C0F8012193
:100EE000A64801F0BCF800220121A44801F0C5F891
:100EF000A449A34F0F60081D006840F08002081D40
:100F00000260A148026822F080020260081F0268A5
:100F100042F08002026000240C605421404601F03F
:100F200090F80A2301225421404600F0BAFF974965
:100F30000F60081D026842F00102026094480268D6
:100F400022F001020260081F026842F00102026002
:100F50000C60904F0621384601F073F80A230122F5
:100F60000621384600F09DFFFF221146304601F071
:100F700084F820221146284601F07FF88DF80040C1
:100F800004E09DF80000401C8DF800009DF8000072
:100F90006428F6D300222021284601F06EF88DF84F
:100FA000004004E09DF80000401C8DF800009DF812
:100FB00000006428F6D3FF221146304601F05DF8A8
:100FC00010221146284601F058F88DF8004004E040
:100FD0009DF80000401C8DF800009DF8000064287A
:100FE000F6D300221021284601F047F88DF8004082
:100FF00004E09DF80000401C8DF800009DF8000002
:101000006428F6D3FF221146304601F036F8042258
:101010001146284601F031F88DF8004004E09DF8B3
:101020000000401C8DF800009DF800006428F6D3F5
:1010300000220421284601F020F88DF8004004E049
:101040009DF80000401C8DF800009DF80000642809
:10105000F6D3FF221146304601F00FF80822114660
:10106000284601F00AF88DF8004004E09DF80000E1
:10107000401C8DF800009DF800006428F6D3002283
:101080000821284600F0F9FF8DF8004004E09DF8A3
:101090000000401C8DF800009DF800006428F6D385
:1010A000FF221146304600F0E8FF01221146284693
:1010B00000F0E3FF8DF8004004E09DF80000401CC4
:1010C0008DF800009DF800006428F6D3002201216D
:1010D000284600F0D2FF8DF8004004E09DF80000A3
:1010E000401C8DF800009DF800006428F6D3FF2214
:1010F0001146304600F0C1FF02221146284600F09A
:10110000BCFF8DF8004004E09DF80010491C8DF8EC
:1011100000109DF800006428F6D300220221284622
:1011200000F0ABFF8DF8004004E09DF80000401C8B
:101130008DF800009DF800006428F6D3FFF7D0FA80
:10114000FFF743FA00F032FC01F040F9FFF787FEA9
:10115000BDE8F84300F0C6BFFFF799FE0025024C3A
:10116000FFF7B9FC2570FBE7400100208003C001B8
:10117000010800F000500040006002400070004094
:101180004B434F4C207500402074004020550240D6
:101190002054024000500240F0B5FE4FDFF8F8E363
:1011A000387879685EF830200EEBC000007910388E
:1011B00000F0FF0C3C3102B3F84E002338783A7A45
:1011C0005EF8300000EB8202002056F823501468CD
:1011D0002C4204D056F820500C682C430C60401C64
:1011E000C0B2121D1028F0D35B1CDBB2091F102BFC
:1011F000E4D3EB49086810B10BE00020F0BD387A69
:10120000401CC0B23872604501D9002038722320DA
:1012100008600120F0BD2DE9F041E04CE14EE24DC7
:10122000216930684FF040270142A878217903D026
:101230000843A870202202E08843A87000222021E1
:10124000384600F01AFFA06831680842A878217873
:1012500003D00843A870082202E08843A870002247
:101260000821384600F009FFA0693168084205D01E
:10127000A87821780843A870802200E0002280210D
:10128000384600F0FAFEA9782068C84E01424FF0B7
:10129000000C01D0C64804E06268114203D0C44883
:1012A0004030306001E0C6F800C0D6E90002C14F0E
:1012B000AFF21B1E3B68734501D1012300E0002300
:1012C0007F68774501D1012700E000273B43B14FFC
:1012D0003F786FB100273B420CD158B1A368194049
:1012E00027D00021AB7827683B420DD029B109E017
:1012F0000127F0E70020BDE8F081337A3068A0EBE9
:1013000083004030337A0AE067683B420AD019B95B
:10131000337A306800EB8300337AC3F110038B42D9
:1013200000D13068491CC9B208C8102908C2D9D3F5
:1013300005E008C8491C08C2C9B21029F9D39E4962
:10134000086880B9A878A26810420AD0307A401C98
:10135000C0B230720F2801D986F808C02820086072
:1013600001E086F808C00120C5E72DE9F047DFF865
:101370004CC2934800219CF800309CF80140DCF8F6
:10138000042050F8233050F824506AB153EA050085
:101390000BD08846AB42404609D102CB401C02C26A
:1013A000C0B21028F9D343E00020BDE8F087DFF891
:1013B000F891DFF8E8A199F80240DAF800603442C9
:1013C0009CF8084015D0461CB44203D203EB8001C0
:1013D000A1EB8401844203D9C61CB44200D200218F
:1013E000861CB44219D905EB8001A1EB8401483178
:1013F00013E02618102E03D203EB840101EB8001C9
:10140000A0F110072744022F00D20021112E04D989
:1014100005EB800101EB8401483911B10C681460BF
:1014200001E0C2F80080401CC0B2121D1028C2D3D7
:101430009CF800009CF80110884210D0614A1068A6
:1014400068B99CF80800401CC0B28CF8080011284C
:1014500003D98CF800108CF8088028201060012037
:10146000A3E72DE9F04F50494C4A00248978D3680E
:1014700064F3070011EA030C02D04FF0010801E009
:101480004FF00008136911EA030701D0012300E0BF
:10149000002348EA0308536911EA030501D0012338
:1014A00000E00023D26948EA0308114001D001227C
:1014B00000E0002258EA02083B4A3E4EDFF808915D
:1014C000DFF808B1DFF8E4E0DFF8F0A05278314B44
:1014D00035D0AFF23B38C6F80080AFF27118C6F8CD
:1014E0000480C3F80490CAF804B0CEF8044011B1E7
:1014F000042161F3070015B1052161F30700BCF178
:10150000000F02D0072161F3070017B1032161F337
:101510000700274D0021803501E0491CC9B205EBC9
:1015200001173F78BA4202D05A29F6D32AE05A2945
:1015300028D205EB0111097B8AF8011022E0C3F8DB
:1015400004B01B4FCAF804B000218037CEF80490D5
:1015500001E0491CC9B207EB011C9CF800C06245C0
:1015600002D05A29F5D30DE05A290BD207EB01110D
:101570004A6872608A6832600A7B8AF80120497B77
:1015800061F307001978C0B2814201D018701C7253
:10159000BDE8F08F7C050020640000207833000057
:1015A000BC000020F400002003000020880500207B
:1015B000F8480000D0000020B8000020700500208E
:1015C00044010020B4000020F00400203005002079
:1015D00030B5E64CE64B2278616853F8320003EBF5
:1015E000C2021279103AD3B2002817D0227A00EB47
:1015F0008202002020CA401C20C1C0B21028F9D3AA
:10160000DC49086848B9207A401CC0B22072984270
:1016100001D90020207223200860012030BD2DE96F
:10162000F047D54CD54ED64D216930684FF0402754
:101630000142A878217903D00843A870202202E053
:101640008843A87000222021384600F016FDA068CB
:1016500031680842A878217803D00843A87008228E
:1016600002E08843A87000220821384600F005FDFA
:10167000A0693168084205D0A87821780843A8708D
:10168000802200E000228021384600F0F6FCA87895
:101690002168BC4B08424FF000090CD0BA491960D0
:1016A000A169326811420FD0B74980311960217A9F
:1016B0000843A87008E06168084203D0B24840308F
:1016C000186001E0C3F80090D3E90001AF4FAFF21A
:1016D000FF0C3A68624501D1012200E000227F68D8
:1016E000674501D1012700E000273A439F4F3F782B
:1016F000EFB100273A421CD1D8B1AA78A7683A4086
:1017000038D00022AF78D4F800C017EA0C0F13D0FD
:1017100093F808C0076827FA0CF70F6093F8088061
:10172000D0F800C0C8F110080CFA08FC17E0012737
:10173000E0E70020BDE8F087D4F804C017EA0C0FFA
:1017400011D093F808C0076807FA0CF70F6093F8F8
:101750000880D0F800C0C8F110082CFA08FC4CEA48
:10176000070CC1F800C0521CD2B2001D091D102A7E
:10177000C8D305E080C8521C80C1D2B2102AF9D368
:1017800083490868B0B9A878A268104210D0187AC6
:10179000401CC0B218720F2801D983F80890A069C4
:1017A0003268104201D0C82000E02820086001E023
:1017B00083F808900120BDE7F0B5764E7648327880
:1017C0007378716850F8222050F8230061B152EA12
:1017D000000309D0824209D1002008CA401C08C178
:1017E000C0B21028F9D33BE00020F0BD644FDFF811
:1017F00088C10023BC78DCF800502C42347A12D027
:10180000102C0AD212B120CAE5400D6018B310C8DE
:10181000357AC5F11205AC4011E0E0B120C8C4F141
:101820001204A54014E0102C0DD212B120CAA5401C
:101830000D6080B110C8357AC5F11205EC400D6815
:101840002C430C6007E030B120C8C4F11204E5401D
:101850000C6825430D605B1CDBB2091D102BC9D33E
:101860003078717888420DD04C4A106850B9307A7F
:10187000401CC0B23072112802D931700020307281
:10188000282010600120F0BD2DE9F0433C483A4D7E
:1018900000248178E86864F30702084000D0012042
:1018A0002B690B4000D0012318436B690B4000D01B
:1018B00001231843EB69194000D001210843304946
:1018C000314D324EDFF8D880DFF8D8C0DFF8B49061
:1018D000304F4978254B05F1C0051ED0AFF20F30CF
:1018E0003060AFF22B107060C3F80480C7F804C0FA
:1018F0000020C9F8044001E0401CC0B205EB00160E
:101900003678B14202D05A28F6D326E05A2824D29B
:1019100005EB0010007B78701FE0C3F804C0C7F827
:1019200004C00020C9F8048001E0401CC0B205EBEF
:10193000001C9CF800C0614502D05A28F5D30CE089
:101940005A280AD205EB0010416831608168716045
:10195000017B7970407B60F307021978D0B2814235
:1019600001D018701C72BDE8F08300007C050020D7
:1019700064000020BC00002078330000F400002048
:10198000030000208805002058630000D0000020DC
:10199000B80000207005002094020020B400002050
:1019A000F004002030050020FFF799B910B549F682
:1019B0003F4000F019FDBDE8104000F00EBD0000F2
:1019C00002480349014A034B704700000806002003
:1019D000080A0020080600207047704770477546C7
:1019E00000F028F8AE4605006946534620F007008F
:1019F000854618B020B5FFF7E3FFBDE820404FF063
:101A000000064FF000074FF000084FF0000B21F0E8
:101A10000701AC46ACE8C009ACE8C009ACE8C009B5
:101A2000ACE8C0098D4670470446AFF300802046FD
:101A3000FEF793FC00487047A405002001491820D8
:101A4000ABBEFEE72600020070470000B1FBF2F3D8
:101A5000B1FBF3FC70B4944588BF5B1CB3F5984FA1
:101A600027D81322B3FBF2FC0CFB02F49C4219D1E1
:101A7000114B03EB420333F8085C03689BB243F05D
:101A800041040460ACF1010404F03F063543C56035
:101A9000C4F38314846103600CFB02F0B1FBF0F02B
:101AA00070BC7047521E042ADCD25B1CB3F5984F01
:101AB000D7D970BC00207047B8690000016821F0D8
:101AC00001010160704701210160016A11F4004FBA
:101AD000FBD1B02141620021416381630121026A8F
:101AE00012F4004FFBD10162491C2029F7D90C21C7
:101AF00041620121026A12F4004FFBD10162491CCC
:101B00002029F7D940687047B1F5004F04BF4068FD
:101B10007047026A12F4004FFBD10822426201F0C2
:101B20003F010162016A11F4004FFBD17047026866
:101B3000114301607047002904BF00697047012903
:101B40001CBF00207047D0F84011D0F8440189B282
:101B500041EA004070472DE9F0014FF0730C002B73
:101B600018BF4FF07B0CC0F884C001F03F06C0F8EE
:101B70008060D0F8801011F4004FFAD1D0F88810AE
:101B80008DB2D0F88C101FFA81FCD0F890108CB276
:101B9000D0F894108BB2D0F89810002789B211F4C5
:101BA000807F03F40058976003D0B8F1000F03D092
:101BB00006E0B8F1000F03D04FF04008C2F80880EB
:101BC00013F4804F04BFC3F38A04146008D0C3F336
:101BD0000C0844EA08441460946844F004049460D7
:101BE00011F4804F03D0946844F48074946011F42D
:101BF000805F2DD013F4804F0DD0CCF30C0345EA59
:101C000003436FF060445360A3420FD1137A13F083
:101C1000400F0FD10AE0CCF38A03A3F5E0645360D0
:101C2000FF3C03D1137A13F0400F03D1936843F0C4
:101C3000080393601CF4004F03D0936843F028031B
:101C400093601CF4804F03D0936843F018039360B3
:101C500011F4006F03D0936843F00103936011F413
:101C6000806F03D0936843F00203936011F4004F38
:101C700002BFD760BDE8F001704701F00F0CC2F859
:101C80000CC0117A11F0400F11D10021156900F13B
:101C90009C03BCF1000F0AD953F8044B6C54491C47
:101CA0008C4502D9240A6C54491C6145F4D30421A3
:101CB000C0F88410C0F88060D0F8801011F4004F94
:101CC000FAD1906840F080009060BDE8F001704764
:101CD0002DE9FF4F4FF0000A016A11F4004FFBD1CC
:101CE000D2F80090B9F5006F06D2117A11F0040F06
:101CF00008BF4FF0000B01D04FF0010B00274FF051
:101D000093083D4639463E46BC46052B24BF04B0E9
:101D1000BDE8F08FDFE803F003071A0A14004FF460
:101D200080714D0110E04FF480710FE04FF40055C9
:101D300069104FF6FF7641F6FF7C4FF0D30805E0BF
:101D40004FF400554FF490514FF0010A946841F65A
:101D5000FF7314F0080F0CD0BBF1000F08BF002672
:101D6000D2F804C00EBF03EA8C0C1FFA8CF6CCF339
:101D70000C4C4FF0280E3EEA040E08BF4CF4004C09
:101D80004FF0180E3EEA040E08BF4CF4804C14F0DD
:101D9000380F1CBF41F4805148F0400848F020083B
:101DA000BBF1000F07D0C9F30C431FFA89F72B438F
:101DB00043F4404904E003EA89032B4343F4004918
:101DC000D56805F00F030B4314F4007F08BF43F000
:101DD000800314F0010F18BF43F4006314F0020FE6
:101DE00018BF43F48063BAF1000F14D00021D2F879
:101DF00010A000F13C04002D0DD91AF80120491C57
:101E00008D4204D91AF801B0491C42EA0B2244F869
:101E1000042BA942F1D3C0F824808662C0F82CC0FC
:101E20000763C0F834908363019901F03F010162B8
:101E300004B0BDE8F08FC1B1012904BFD0F8001192
:101E4000D0F8040116D0022904BFD0F82011D0F830
:101E500024010FD0032911BF0021D0F86011D0F860
:101E6000640141EA00410846704741686FF01F0273
:101E70004260F8E741EA0041F5E7D0F8003412F09B
:101E8000010F14BF0B438B43C0F8003412F0020F54
:101E9000D0F8202414BF114322EA0101C0F8201415
:101EA00070472DE9F00301264FF0000C0325C2F323
:101EB000411706FA0CF40C4211D0D0F8C48F4FEA47
:101EC0004C0405FA04F928EA0908C0F8C48FD0F8D0
:101ED000C48F07FA04F448EA0404C0F8C44F0CF1B4
:101EE000010C0CF0FF0CBCF1080FE2D3D0F800C5D8
:101EF00012F0010F14BF4CEA010C2CEA010CC0F8DF
:101F000000C5D0F804C512F0020F14BF4CEA010C52
:101F10002CEA010CC0F804C5D0F808C512F0040F73
:101F200014BF4CEA010C2CEA010CC0F808C5D0F82B
:101F300018C512F0080F14BF4CEA010C2CEA010C72
:101F4000C0F818C512F0100FD0F83C2514BF0A4392
:101F50008A43C0F83C25D0F80C2513F0010F14BFBC
:101F60000A438A43C0F80C25D0F8102513F0020F5D
:101F700014BF0A438A43C0F81025D0F8142513F083
:101F8000040F14BF0A438A43C0F81425D0F81C2557
:101F900013F0080F14BF0A438A43C0F81C25D0F879
:101FA000442513F4007F14BF0A438A43C0F8442534
:101FB000D0F8402513F4407F14BF0A438A43C0F889
:101FC0004025D0F82825002B0CBF114322EA01013F
:101FD000C0F82815BDE8F003704700000E4AC0F3B2
:101FE0000741D26E01238B401A420C4A1ABF02EB02
:101FF000C101496852F83110020AD1F82C354FF06E
:102000000F0C0CFA02FC00F00F0023EA0C039040C6
:102010001843C1F82C05704700E00F40706B0000BA
:1020200050F82100704730B50C4605460222FFF7F4
:1020300024FF21462846BDE8304008236622FFF7EA
:1020400030BF30B50C4605460022FFF716FF21468B
:102050002846BDE8304008230122FFF722BF30B5F3
:102060000C46054608230122FFF71BFF21462846A0
:10207000BDE830400122FFF700BF40F82120704743
:102080001649042804BF086840F4803018D0052899
:1020900004BF086840F4003012D0062812D00F2880
:1020A00015D0102838BF7047103800F01F010122EA
:1020B00002FA01F142090A4850F822000160704713
:1020C00008607047086840F48020086070474FF04F
:1020D000E020016941F002010161704724ED00E058
:1020E000BC6C000010B5FEF74AF9002818BF0120AB
:1020F00010BD000070B44B4D2A6E296F11F0004FD7
:1021000014BF01F0700002F03000202808BF4648DC
:1021100018D005DC88B1102808BF444812D009E067
:10212000302808BF47F230500CD0702808BF4FF459
:10213000004007D070BC002070477C203C4B00EA78
:10214000121018584FF0FF3311F0004F02D011F465
:10215000006F06D001F0004C02F400645CEA040C4D
:1021600036D1D5F860C1D5F8644104F01F06C4F338
:102170000424641C761C16FB04F46400B0FBF4F029
:10218000CCF309044443CCF3892C00FB0CF0D5F8C4
:1021900010C004EB902042F480020CF4704CBCF5AB
:1021A000804F08BF234B13D009DCBCF5005F08BF8C
:1021B000214B0DD0BCF5405F08BF204B08E0BCF5BB
:1021C000E04F08BF1E4B03D0BCF5104F08BF1D4B9E
:1021D00012F4800F21D011F0004F19D011F0804F70
:1021E00009D011F4006F0CD001F0004C02F4006231
:1021F0005CEA020205D0C1F3C551491CB0FBF1F005
:102200000BE04000C1F38651491CB0FBF1F004E043
:10221000C2F3C351491CB0FBF1F0834238BF1846EA
:1022200070BC704700E00F4000093D000024F4003E
:10223000146D0000005A620200B4C40480F0FA0277
:1022400040787D01002D3101434B30B4196E1A6F77
:1022500021F4800141F4006142F4006419661C67B6
:1022600021EA000212F0010F14D060F001021140C7
:102270009A159A651966D3F850C0D2021CF4807F73
:1022800008D1521E04BF30BC7047D3F850C01CF4B4
:10229000807FF6D021F4FE6100F4FE621143DFF886
:1022A000BCC024F0700222F0004200EA0C0C4CEAA0
:1022B000020200F0080C42EACC0219661A6700F428
:1022C000005C21F4005122F400524CEA01014CEA76
:1022D00002024FF0400CC3F858C012F0004F08BF84
:1022E00019661A6718BF196621F00101DFF870C07E
:1022F00021F0F86100EA0C0C4CEA010122F0FC52DA
:1023000000F0FC5C4CEA020210F0804F08BF22F0A3
:10231000804209D0DFF84CC022F4800200EA0C0CA5
:1023200041F480014CEA020210F4006F08BF4FF440
:1023300000400AD1D3F868C11CF0010F01D1401E42
:10234000F8D121F4006122F4006219661A6730BCEA
:102350001020FEF709B8000000E00F4030000080B8
:102360000100C00700004040C0F307230749C0B286
:10237000194401F07043C1F3130143EA411141EAEA
:10238000800040F0007001220260704700E60F40BC
:10239000C0F307230C49C0B2194401F07043C1F3E4
:1023A000130143EA411141EA800040F0007181B01D
:1023B00001220A60002200920098401C0090102820
:1023C000FAD30A6001B0704700E50F404FF0E020FB
:1023D000016941F00501016170474FF0E02001699A
:1023E00041F00201016170474FF0E021401E486159
:1023F0007047816841F00101816070470121C1602F
:10240000704701607047816841F002018160704748
:102410004FF04070E1EE100A70470000000000002D
:1024200000000000000000000000000000000000AC
:10243000000000000000000000000000000000009C
:10244000000000000000000000000000000000008C
:10245000000000000000000000000000000100007B
:10246000F01F0000F01F000010110000101000000D
:1024700010100000E00F0000C00700000000000086
:10248000C01F0000E01F000010010000100100004C
:1024900010010000E01F0000C01F0000000000004D
:1024A000F01F0000E01F000040000000800000005E
:1024B00000010000F01F0000F01F000000000000FD
:1024C000C0070000E00F0000101000001010000016
:1024D00010110000101F0000201E0000000000006E
:1024E000000000000000000000000000F01F0000DD
:1024F000F01F000000010000800200004004000006
:10250000200800001010000000000000F41F000070
:10251000F41F000000000000F01F0000F41F000086
:10252000121100001211000012110000141100001D
:102530001011000001000000F51F0000E31F000063
:10254000400000008000000040000000E01F00008C
:10255000F01F00000000000000000000000000006C
:10256000000000001000000010000000F01F00003C
:10257000F01F00001000000010000000000000002C
:10258000F01F0000F01F0000100200001002000009
:1025900010060000E0090000C0100000000000006C
:1025A000C01F0000E01F000010010000100100002B
:1025B00010010000E01F0000C01F0000000000002C
:1025C000000000000000000000000000000000000B
:1025D00000000000000000000000000000000000FB
:1025E00000000000000000000000000000000000EB
:1025F00000000000000000000000000000000000DB
:1026000000000000000000000000000000000000CA
:1026100000000000000000000000000000000000BA
:1026200000000000000000000000000000000000AA
:10263000000000000000000000000000000000009A
:10264000FFFF00000000000000000000FFFF00008E
:102650000000000000000000FFFF0000000000007C
:1026600000000000FFFF000000000000000000006C
:10267000FFFF00000000000000000000FFFF00005E
:10268000000000000000000000000000000000004A
:10269000000000000000000000000000000000003A
:1026A000000000000000000000000000000000002A
:1026B000000000000000000000000000000000001A
:1026C000000000000000000000000000000000000A
:1026D00000000000000000000000000000000000FA
:1026E00000000000000000000000000000000000EA
:1026F00000000000000000000000000000000000DA
:102700001000000010000000F01F0000F01F00008B
:10271000100000001000000000000000C01F0000BA
:10272000E01F0000104100001041000010410000B7
:10273000E01F0000C01F000000000000F01F0000AC
:10274000E01F00004000000080000000400000008A
:10275000E01F0000F01F000000000000000000006B
:102760000000000000000000F01F0000E01F00005B
:10277000400000008000000000010000F01F000089
:10278000F01F000000000000C0070000E00F000084
:10279000101000001010000010110000101F0000A9
:1027A000201E000000000000F0070000F00F0000F5
:1027B000001000000010000000100000F00F0000EA
:1027C000F00700000C00000000000000F01F0000F7
:1027D000E01F000040000000800000000001000039
:1027E000F01F0000F01F000000000000C007000004
:1027F000E00F000010100000101000001011000089
:10280000101F0000201E000000000000000000005B
:1028100000000000000000000000000000000000B8
:1028200000000000000000000000000000000000A8
:102830000000000000000000000000000000000098
:102840000000000000000000000000000000000088
:102850000000000000000000000000000000000078
:102860000000000000000000000000000000000068
:102870000000000000000000000000000000000058
:102880000000000000000000000000000000000048
:10289000C0070000E00F0000101000001010000042
:1028A00010100000101000002008000000000000C0
:1028B000F0070000F00F00000410000004100000FA
:1028C00002100000F20F0000F00700000C000000F2
:1028D00000000000F0070000F00F000000100000F2
:1028E0000010000000100000F00F0000F0070000D2
:1028F00000000000000000000000000000000000D8
:10290000F01F0000F01F00000001000000010000A7
:1029100000010000F01F0000F01F00000000000098
:10292000C0070000E40F0000125000001250000029
:1029300012500000E40F0000C0070000000000007B
:102940000000000000000000000000000000000087
:102950000000000000000000000000000000000077
:102960000000000000000000000000000000000067
:102970000000000000000000000000000000000057
:102980000000000000000000000000000000000047
:102990000000000000000000000000000000000037
:1029A0000000000000000000000000000000000027
:1029B0000000000000000000000000000000000017
:1029C0000000000000000000000000000000000007
:1029D0000000000000000000C0070000E00F000041
:1029E0001010000010100000101000001010000067
:1029F0002008000000000000F0070000F00F0000B9
:102A0000041000000410000002100000F20F00008B
:102A1000F00700000C00000000000000F0070000BC
:102A2000F00F000000100000001000000010000077
:102A3000F00F0000F00700000000000000000000A0
:102A40000000000000000000F01F0000F01F000068
:102A5000000100000001000000010000F01F000064
:102A6000F01F000000000000C0070000E00F0000A1
:102A7000111000001510000013100000E00F0000FE
:102A8000C007000000000000C01F0000E01F0000A1
:102A9000100100001001000010010000E01F000004
:102AA000C01F000000000000000000000000000047
:102AB0000000000000000000000000000000000016
:102AC0000000000000000000000000000000000006
:102AD00000000000000000000000000000000000F6
:102AE00000000000000000000000000000000000E6
:102AF00000000000000000000000000000000000D6
:102B000000000000000000000000000000000000C5
:102B100000000000000000000000000000000000B5
:102B200000000000F0070000F00F0000001000009F
:102B30000010000000100000F00F0000F00700007F
:102B40000C00000000000000F0070000F00F000083
:102B5000001000000010000000100000F00F000046
:102B6000F00700000000000000000000000000006E
:102B7000000000001000000010000000F01F000026
:102B8000F01F000010000000100000000000000016
:102B9000F41F0000F41F000000000000F01F000000
:102BA000F41F0000121100001211000012110000A9
:102BB000141100001011000000000000F01F0000C0
:102BC000E01F000040000000800000000001000045
:102BD000F01F0000F01F00000000000000000000D7
:102BE0000000000000000000C0070000E00F00002F
:102BF0001010000010100000101000001010000055
:102C00002008000000000000C01F0000E01F0000BE
:102C1000100100001001000010010000E01F000082
:102C2000C01F000000000000F01F0000F01F0000A7
:102C3000101100001011000010110000E00F000042
:102C4000C006000000000000F41F0000F41F000098
:102C500000000000F01F0000E01F00004000000026
:102C60008000000000010000F01F0000F01F0000C5
:102C70000000000000000000000000000000000054
:102C80000000000000000000000000000000000044
:102C90000000000000000000000000000000000034
:102CA0000000000000000000000000000000000024
:102CB0000000000000000000000000000000000014
:102CC0000000000000000000000000000000000004
:102CD00000000000000000000000000000000000F4
:102CE00000000000000000000000000000000000E4
:102CF00000000000C0070000E00F000010100000FE
:102D00001010000010140000E00F0000C0170000B9
:102D100000100000F0070000F00F0000001000009D
:102D20000010000000100000F00F0000F00700008D
:102D300000000000C01F0000E01F000014010000A0
:102D40001401000012010000E21F0000C01F00007B
:102D50000000000000000000000000000000000073
:102D6000000000001000000010000000F01F000034
:102D7000F01F000010000000100000000000000024
:102D8000C01F0000E01F000011010000150100003D
:102D900013010000E01F0000C01F00000000000041
:102DA000F41F0000F41F00000000000000000000FD
:102DB0000000000000000000000000000000000013
:102DC0000000000000000000000000000000000003
:102DD00000000000000000000000000000000000F3
:102DE00000000000000000000000000000000000E3
:102DF00000000000000000000000000000000000D3
:102E000000000000000000000000000000000000C2
:102E100000000000000000000000000000000000B2
:102E2000000000000000000000000000F01F000093
:102E3000F01F000010020000100200001006000049
:102E4000E0090000C010000000000000F01F0000BA
:102E5000F01F000010110000101100001011000000
:102E6000101100001011000000000000E008000038
:102E7000F0110000101100001011000010110000EE
:102E8000101F0000200E000000000000F01F0000D6
:102E9000F01F0000101100001011000010110000C0
:102EA00010110000101100000000000010000000D0
:102EB00010000000F01F0000F01F000010000000D4
:102EC00010000000000000000000000000000000F2
:102ED00000000000000000000000000000000000F2
:102EE00000000000000000000000000000000000E2
:102EF00000000000000000000000000000000000D2
:102F000000000000000000000000000000000000C1
:1031500049000000B80B000064000000B80B00003C
:1031600076000000B80B0000770000008813000014
:1031700079000000881300007C000000B80B0000FC
:1031800038000000B80B000037000000A00F00005E
:103190000E000000DC0500000F000000DC05000050
:1031A00010000000DC05000011000000DC0500003C
:1031B00012000000DC05000013000000DC05000028
:1031C00014000000DC05000015000000DC05000014
:1031D00016000000DC05000017000000DC05000000
:1031E00018000000DC05000019000000DC050000EC
:1031F0001A000000DC0500001B000000DC050000D8
:103200001C000000DC0500001D000000DC050000C3
:103210001E000000DC0500001F000000DC050000AF
:1032200020000000DC05000021000000DC0500009B
:103230003F000000DC05000006000000DC05000087
:103240005B000000DC0500004F000000DC05000012
:1032500066000000DC0500006D000000DC050000D9
:103260007D000000DC05000007000000DC05000018
:103270007F000000DC0500006F000000DC0500009E
:10328000BF000000DC05000086000000DC05000037
:10329000DB000000DC050000CF000000DC050000C2
:1032A000E6000000DC050000ED000000DC05000089
:1032B000FD000000DC05000087000000DC050000C8
:1032C00088000000DC050000EF000000DC050000C5
:1032D00022000000DC05000023000000DC050000E7
:1032E00024000000DC05000025000000DC050000D3
:1032F00026000000DC05000027000000DC050000BF
:1033000028000000DC05000029000000DC050000AA
:103310002A000000DC0500002B000000DC05000096
:103320002C000000DC0500002D000000DC05000082
:103330002E000000DC0500002F000000DC0500006E
:1033400030000000DC05000031000000DC0500005A
:1033500032000000DC05000033000000DC05000046
:1033600034000000DC05000035000000DC05000032
:1033700036000000DC050000010000000200000033
:103380000400000008000000100000002000000001
:10339000400000008000000000010000000200006A
:1033A00000040000000800000010000000200000E1
:1033B000004000000080000000000100000002004A
:1033C00000000400000008000000100000002000C1
:1033D000000040000000800000000001000000022A
:1033E00000000004000000080000001000000020A1
:1033F000000000400000008000000000000000000D
:1034000000000000000000000000000000000000BC
:1034100000000000000000000000000000000000AC
:10342000000000000000000000000000000000009C
:10343000000000000000000000000000000000008C
:1034400000000000F00F000030000000300000001D
:103450003000000030000000F00F000030000000DD
:10346000300000003000000030000000F00F0000CD
:10347000000000000000000000000000000000004C
:1034800000000000F003000030040000300C0000D9
:10349000300C000030040000F00300003004000095
:1034A000300C0000300C000030040000F00300007D
:1034B000000000000000000000000000000000000C
:1034C00000000000F00F000030000000300000009D
:1034D000300000003000000030000000300000002C
:1034E000300000003000000030000000300000001C
:1034F00000000000000000000000000000000000CC
:1035000000000000300C0000300C0000300C000007
:10351000300C0000300C0000300C0000300C0000BB
:10352000B00D0000700E0000300C0000100800000C
:10353000000000000000000000000000000000008B
:10354000000000001EC6000023C6000060C6000088
:1035500060C6000020C600001CFE000064C600001B
:1035600062C6000061C60000C04400006038000070
:10357000000000000000000000000000000000004B
:103580000000000060C6000060C60000FFC600002A
:1035900063C6000063C6000063FE000062C6000050
:1035A00064C6000068C60000704400006038000077
:1035B000000000000000000000000000000000000B
:1035C0000000000030C6000030C6000031C6000018
:1035D00031C6000030C6000030FE000030C60000DA
:1035E00031C6000031C60000384400003038000009
:1035F00000000000000000000000000000000000CB
:10360000000000001E1F0000232300006063000074
:1036100060630000202300001C1F000064230000E2
:103620006263000061630000C0230000601F0000AF
:10363000000000000000000000000000000000008A
:10364000000000003C1F000046230000C063000093
:10365000C0630000C0230000401F00003E230000A4
:10366000066300000663000006230000FE1F000042
:10367000000000000000000000000000000000004A
:1036800000000000FBCD00001BCC00001BCC0000A4
:1036900013CC000023CC000043FC000083CC0000CE
:1036A00083CD000083CD00008B490000F230000084
:1036B000000000000000000000000000000000000A
:1036C0000000000083CD000083CD000083CD00000A
:1036D000FBCD00009BCD00009BFD00009BCD0000BA
:1036E00093CD0000A3CD0000C3490000823100004B
:1036F00000000000000000000000000000000000CA
:10370000000000007F7C000003C6000003C600002C
:1037100003C6000003C600007FC6000003C6000009
:1037200003C6000003C6000003C600007F7C000043
:103730000000000000000000000000000000000089
:1037400000000000FC3100000C3000000C300000D4
:103750000C3000000C300000FC3100000C30000088
:103760000C3000000C3000000C380000FC31000070
:103770000000000000000000000000000000000049
:10378000000000007FFE00000306000003040000AC
:1037900003080000031000007F2000000340000029
:1037A00003C0000003C0000003C600007F7C0000CF
:1037B0000000000000000000000000000000000009
:1037C000000000007F3C00000346000003C0000032
:1037D00003C00000034000007F38000003400000E9
:1037E00003C0000003C00000034600007F3C00004F
:1037F00000000000000000000000000000000000C9
:10380000000000007F6000000360000003FF000074
:1038100003630000036300007F6300000362000095
:103820000364000003680000037000007F60000074
:103830000000000000000000000000000000000088
:10384000000000007F3C00000346000003C00000B1
:1038500003C0000003C000007F400000033E0000E2
:103860000306000003060000030600007FFE0000C0
:103870000000000000000000000000000000000048
:10388000000000007F7C000003C6000003C60000AB
:1038900003C6000003C600007FC60000037E0000D0
:1038A000030600000306000003C600007F7C000042
:1038B0000000000000000000000000000000000008
:1038C000000000007F18000003180000031800002B
:1038D00003180000031000007F20000003400000D8
:1038E00003C0000003C0000003C000007FFE000012
:1038F00000000000000000000000000000000000C8
:10390000000000007C3000008C3000008C31000092
:103910008C3100008C3000007C3000008C300000C6
:103920008C3100008C3100008C3800007C300000AD
:103930000000000000000000000000000000000087
:10394000000000001FFE00002306000063040000CA
:1039500063080000231000001F2000002340000027
:1039600063C0000063C0000023C600001F7C00008D
:103970000000000000000000000000000000000047
:10398000000000001F3C00002346000063C0000050
:1039900063C00000234000001F38000023400000E7
:1039A00063C0000063C00000234600001F3C00000D
:1039B0000000000000000000000000000000000007
:1039C000000000001F6000002360000063FF000093
:1039D00063630000236300001F6300002362000094
:1039E0006364000063680000237000001F60000033
:1039F00000000000000000000000000000000000C7
:103A0000000000001F3C00002346000063C00000CF
:103A100063C0000023C000001F400000233E0000E0
:103A20006306000063060000230600001FFE00007E
:103A30000000000000000000000000000000000086
:103A4000000000008C3100008C3100008C3100003F
:103A50008C3100008C3100008C3100008C31000072
:103A6000AC310000DC3100008C3900000431000072
:103A70000000000000000000000000000000000046
:103A80000000000063FE0000630600006304000005
:103A90006308000063100000632000006340000022
:103AA0006BC0000077C0000063C60000417C0000CE
:103AB0000000000000000000000000000000000006
:103AC000000000008C3100008C3100008C310000BF
:103AD0008C3100008C310000FC3100008C31000082
:103AE0008C3100008C3100008C3900008C310000DA
:103AF00000000000000000000000000000000000C6
:103B00000000000063FE0000630600006304000084
:103B100063080000631000007F2000006340000085
:103B200063C0000063C0000063C60000637C000047
:103B30000000000000000000000000000000000085
:103B400000000000C00F0000200C0000300C00003E
:103B5000300C0000300C0000300600003000000087
:103B6000300000003000000020080000C007000006
:103B70000000000000000000000000000000000045
:103B800000000000800100008001000080010000B2
:103B90008001000080010000800100008001000021
:103BA0008001000080010000C001000080010000D1
:103BB0000000000000000000000000000000000005
:103BC00000000000F00F00003000000020000000A6
:103BD0004000000080000000000100000002000022
:103BE00000040000000C0000300C0000E0070000A2
:103BF00000000000000000000000000000000000C5
:103C000000000000E003000030040000000C000091
:103C1000000C000000040000C003000000040000CD
:103C2000000C0000000C000030040000E003000065
:103C30000000000000000000000000000000000084
:103C400000000000000C0000000C0000F01F00004D
:103C5000300C0000300C0000200C0000400C000074
:103C6000800C0000000D0000000E0000000C0000A1
:103C70000000000000000000000000000000000044
:103C800000000000E003000030040000000C000011
:103C9000000C0000000C000000040000F003000015
:103CA000300000003000000030000000F00F000085
:103CB0000000000000000000000000000000000004
:103CC00000000000E0070000300C0000300C000095
:103CD000300C0000300C0000300C0000F007000039
:103CE0003000000030000000300C0000E007000051
:103CF00000000000000000000000000000000000C4
:103D000000000000C0000000C0000000C000000073
:103D1000C000000080000000000100000002000060
:103D200000040000000C0000000C0000F00F000078
:103D30000000000000000000000000000000000083
:103D400000000000E0070000300C0000300C000014
:103D5000300C0000300C0000E0070000300C0000C8
:103D6000300C0000300C0000300C0000E0070000B8
:103D70000000000000000000000000000000000043
:103D800000000000E0070000300C0000000C000004
:103D9000000C0000000C0000E00F0000300C0000E0
:103DA000300C0000300C0000300C0000E007000078
:103DB0000000000000000000000000000000000003
:103DC00000000000181F000098310000983100002A
:103DD00098310000983100009831000098310000BF
:103DE00098310000983100009C310000181F00003D
:103DF00000000000000000000000000000000000C3
:103E000000000000600C0000600C0000600C00006E
:103E1000600C0000600C0000600C0000600C0000F2
:103E2000600C0000600C0000700E0000600C0000D0
:103E30000000000000000000000000000000000082
:103E400000000000983F00009801000018010000E9
:103E500018020000180400001808000018100000E4
:103E600018300000183000009C310000181F0000BE
:103E70000000000000000000000000000000000042
:103E800000000000180F000098110000183000001A
:103E90001830000018100000180E00001810000064
:103EA00018300000183000009C110000180F0000AE
:103EB0000000000000000000000000000000000002
:103EC000000000001830000018300000987F00004B
:103ED000983100009831000098310000183100003E
:103EE00018320000183400001C38000018300000A0
:103EF00000000000000000000000000000000000C2
:103F000000000000180F0000981100001830000099
:103F1000183000001830000018100000980F000042
:103F200098010000980100009C010000983F0000EB
:103F30000000000000000000000000000000000081
:103F400000000000181F00009831000098310000A8
:103F5000983100009831000098310000981F00004F
:103F600098010000980100009C310000181F00001B
:103F70000000000000000000000000000000000041
:103F800000000000180600001806000018060000D7
:103F9000180600001804000018080000181000009F
:103FA00018300000183000001C300000983F00005E
:103FB0000000000000000000000000000000000001
:103FC00000000000181F0000983100009831000028
:103FD0009831000098310000181F0000983100004F
:103FE00098310000983100009C310000181F00003B
:103FF00000000000000000000000000000000000C1
:1040000000000000181F0000983100001830000068
:104010001830000018300000183F000098310000F0
:1040200098310000983100009C310000181F0000FA
:104030000000000000000000000000000000000080
:10404000000000007F7C000003C6000002C60000E4
:1040500004C6000008C6000010C6000020C600000C
:1040600060C6000060C6000063C600003E7C000021
:104070000000000000000000000000000000000040
:1040800000000000FC3100000C300000083000008F
:104090001030000020300000403000008030000070
:1040A00080310000803100008C390000F8300000C1
:1040B0000000000000000000000000000000000000
:1040C000000000007FFE0000030600000204000064
:1040D000040800000810000010200000204000002C
:1040E00060C0000060C0000063C600003E7C0000AD
:1040F00000000000000000000000000000000000C0
:10410000000000007F3C00000346000002C00000E9
:1041100004C00000084000001038000020400000EB
:1041200060C0000060C00000634600003E3C00002C
:10413000000000000000000000000000000000007F
:10414000000000007F6000000360000002FF00002C
:104150000463000008630000106300002062000098
:104160006064000060680000637000003E60000052
:10417000000000000000000000000000000000003F
:10418000000000007F3C00000346000002C0000069
:1041900004C0000008C0000010400000203E0000E5
:1041A0006006000060060000630600003EFE00009E
:1041B00000000000000000000000000000000000FF
:1041C000000000007F7C000003C6000002C6000063
:1041D00004C6000008C6000010C60000207E0000D3
:1041E000600600006006000063C600003E7C000020
:1041F00000000000000000000000000000000000BF
:10420000000000007F1800000318000002180000E2
:1042100004180000081000001020000020400000DA
:1042200060C0000060C0000063C000003EFE0000EF
:10423000000000000000000000000000000000007E
:10424000000000007F7C000003C6000002C60000E2
:1042500004C6000008C60000107C000020C6000054
:1042600060C6000060C6000063C600003E7C00001F
:10427000000000000000000000000000000000003E
:10428000000000007F7C000003C6000002C00000A8
:1042900004C0000008C0000010FC000020C60000A0
:1042A00060C6000060C6000063C600003E7C0000DF
:1042B00000000000000000000000000000000000FE
:1042C000000000001E7C000023C6000060C6000045
:1042D00060C6000020C600001CC6000020C600000A
:1042E00060C6000060C6000023C600001E7C0000FF
:1042F00000000000000000000000000000000000BE
:1043000000000000783000008C3000008031000098
:1043100080310000803000007030000080300000EC
:1043200080310000803100008C38000078300000BF
:10433000000000000000000000000000000000007D
:10434000000000001EFE00002306000060040000C4
:1043500060080000201000001C2000002040000029
:1043600060C0000060C0000023C600001E7C00008A
:10437000000000000000000000000000000000003D
:10438000000000001E3C00002346000060C000004A
:1043900060C00000204000001C38000020400000E9
:1043A00060C0000060C00000234600001E3C00000A
:1043B00000000000000000000000000000000000FD
:1043C000000000001E6000002360000060FF00008D
:1043D00060630000206300001C6300002062000096
:1043E0006064000060680000237000001E60000030
:1043F00000000000000000000000000000000000BD
:10440000000000001E3C00002346000060C00000C9
:1044100060C0000020C000001C400000203E0000E2
:104420006006000060060000230600001EFE00007B
:10443000000000000000000000000000000000007C
:10444000000000001E7C000023C6000060C60000C3
:1044500060C6000020C600001CC60000207E0000D0
:10446000600600006006000023C600001E7C0000FD
:10447000000000000000000000000000000000003C
:10448000000000001E180000231800006018000043
:1044900060180000201000001C20000020400000D8
:1044A00060C0000060C0000023C000001EFE0000CD
:1044B00000000000000000000000000000000000FC
:1044C000000000001E7C000023C6000060C6000043
:1044D00060C6000020C600001C7C000020C6000052
:1044E00060C6000060C6000023C600001E7C0000FD
:1044F00000000000000000000000000000000000BC
:10450000000000001E7C000023C6000060C0000008
:1045100060C0000020C000001CFC000020C600009D
:1045200060C6000060C6000023C600001E7C0000BC
:10453000000000000000000000000000000000007B
:10454000000000001F7C000023C6000063C60000BE
:1045500063C6000023C600001FC60000237E0000C3
:10456000630600006306000023C600001F7C0000F5
:10457000000000000000000000000000000000003B
:1045800000000000FBCD00001B4C00001BCC000015
:1045900013CC0000234C0000433C0000834C00007F
:1045A00083CD000083CD00008B4D0000F23C000065
:1045B00000000000000000000000000000000000FB
:1045C00000000000833D0000834D000083CD00000B
:1045D000FBCD00009B4D00009B3D00009B4D00006B
:1045E00093CD0000A3CD0000C34D0000823D00002C
:1045F00000000000000000000000000000000000BB
:10460000000000003008000030040000300200000C
:1046100030010000F003000030040000300C000006
:10462000300C0000300C000030040000F0030000EB
:10463000000000000000000000000000000000007A
:1046400000000000800100008001000080010000E7
:104650008001000080010000800100008001000056
:10466000800100008001000080010000F00F0000C8
:10467000000000000000000000000000000000003A
:10468000000000001E3E00002346000060C600003F
:1046900060C60000204600001C3E000020460000CE
:1046A00060C6000060C60000234600001E3E0000F9
:1046B00000000000000000000000000000000000FA
:1046C000000000001F1800002318000063180000FD
:1046D00063180000231000001F200000234000008A
:1046E00063C0000063C0000023C000001FFE000084
:1046F00000000000000000000000000000000000BA
:10470000000000007CFE000062060000630600005E
:104710006306000063060000330600000306000085
:104720000306000003060000420600003C060000ED
:104730000000000000000000000000000000000079
:1047400000000000633C00006346000063C00000FE
:1047500063C0000063400000633800006340000055
:104760006BC0000077C0000063460000413C0000C1
:104770000000000000000000000000000000000039
:10478000000000001E180000231800006018000040
:1047900060180000201800001C180000021800001B
:1047A0000318000003180000621800003CFF00001E
:1047B00000000000000000000000000000000000F9
:1047C00000000000FC3300000C3000000C30000042
:1047D0000C3000000C3000000C3000000C300000E9
:1047E0000C3000000C3000000C3800000C300000D1
:1047F00000000000000000000000000000000000B9
:10480000000000007FFF000003030000030200001F
:104810000304000003080000031000000320000050
:104820000340000003C0000003C30000037E00003B
:104830000000000000000000000000000000000078
:10484000000000007F3E00000343000003C00000A2
:1048500003C0000003400000033C000003400000D0
:1048600003C0000003C0000003430000033E00003B
:104870000000000000000000000000000000000038
:10488000000000007F6000000360000003FF0000E4
:104890000363000003630000036300000362000081
:1048A0000364000003680000037000000360000060
:1048B00000000000000000000000000000000000F8
:1048C000000000007F3C00000346000003C0000021
:1048D00003C0000003C0000003400000033E0000CE
:1048E00003060000030600000306000003FE0000AC
:1048F00000000000000000000000000000000000B8
:1049000000000000C0030000C0030000C00300005E
:10491000C0030000C0030000C0030000D00B000073
:10492000E0070000C003000080010000000000005C
:104930000000000000000000000000000000000077
:104940000000000080010000C0030000E00700003C
:10495000D00B0000C0030000C0030000C003000033
:10496000C0030000C0030000C003000000000000FE
:104970000000000000000000490000009911000044
:104980000000000000000000640000009911000019
:1049900017120000000100007600000099110000CD
:1049A00017120000000600007700000099110000B7
:1049B0001712000000020000790000006B130000D5
:1049C00017120000280000007C0000006B1300009C
:1049D0001712000001000000380000006B130000F7
:1049E0001712000002000000370000006B130000E7
:1049F00017120000030000000E0000006B130000FF
:104A000017120000040000000F0000006B130000EC
:104A10001712000005000000100000006B130000DA
:104A20001712000006000000110000006B130000C8
:104A30001712000007000000120000006B130000B6
:104A40001712000008000000130000006B130000A4
:104A50001712000009000000140000006B13000092
:104A6000171200000A000000150000006B13000080
:104A7000171200000B000000160000006B1300006E
:104A8000171200000C000000170000006B1300005C
:104A9000171200000D000000180000006B1300004A
:104AA000171200000E000000190000006B13000038
:104AB000171200000F0000001A0000006B13000026
:104AC00000000000290000001B0000006B13000024
:104AD000000000002A0000001C0000006B13000012
:104AE000000000002B0000001D0000006B13000000
:104AF000000000002C0000001E0000006B130000EE
:104B0000000000002D0000001F0000006B130000DB
:104B1000000000002E000000200000006B130000C9
:104B2000000000002F000000210000006B130000B7
:104B300000000000300000003F0000006B13000088
:104B40001712000010000000060000006B130000A8
:104B500017120000110000005B0000006B13000042
:104B600017120000120000004F0000006B1300003D
:104B70001712000013000000660000006B13000015
:104B800017120000140000006D0000006B130000FD
:104B900017120000150000007D0000006B130000DC
:104BA0001712000016000000070000006B13000041
:104BB00017120000170000007F0000006B130000B8
:104BC00017120000180000006F0000006B130000B7
:104BD0001712000019000000BF0000006B13000056
:104BE000171200001A000000860000006B1300007E
:104BF000171200001B000000DB0000006B13000018
:104C0000171200001C000000CF0000006B13000012
:104C1000171200001D000000E60000006B130000EA
:104C2000171200001E000000ED0000006B130000D2
:104C3000171200001F000000FD0000006B130000B1
:104C40001712000020000000870000006B13000016
:104C50001712000021000000880000006B13000004
:104C60001712000022000000EF0000006B1300008C
:104C70001712000023000000220000006B13000048
:104C80001712000024000000230000006B13000036
:104C90001712000025000000240000006B13000024
:104CA0001712000026000000250000006B13000012
:104CB0001712000027000000260000006B13000000
:104CC0001712000031000000270000006B130000E5
:104CD0001712000032000000280000006B130000D3
:104CE0001712000033000000290000006B130000C1
:104CF00017120000340000002A0000006B130000AF
:104D000017120000350000002B0000006B1300009C
:104D100017120000360000002C0000006B1300008A
:104D200017120000370000002D0000006B13000078
:104D300017120000380000002E0000006B13000066
:104D400017120000390000002F0000006B13000054
:104D5000171200003A000000300000006B13000042
:104D6000171200003B000000310000006B13000030
:104D7000171200003C000000320000006B1300001E
:104D8000171200003D000000330000006B1300000C
:104D9000171200003E000000340000006B130000FA
:104DA000171200003F000000350000006B130000E8
:104DB0001712000040000000360000006B130000D6
:104DC0001712000041000000390000006B130000C2
:104DD00017120000420000003A0000006B130000B0
:104DE0001712000043000000400000006B13000099
:104DF0001712000044000000410000006B13000087
:104E00001712000045000000420000006B13000074
:104E10001712000046000000430000006B13000062
:104E20001712000047000000440000006B13000050
:104E30001712000048000000450000006B1300003E
:104E400017120000490000003C0000006B13000036
:104E5000171200004A0000003D0000006B13000024
:104E6000171200004B0000003E0000006B13000012
:104E7000171200004C000000460000006B130000F9
:104E8000171200004D0000004A0000006B130000E4
:104E9000171200004E000000470000006B130000D6
:104EA000171200004F000000480000006B130000C4
:104EB0001712000050000000490000006B130000B2
:104EC00017120000510000004B0000006B1300009F
:104ED00017120000520000004C0000006B1300008D
:104EE0001712000053000000000000000000000046
:104EF00000000000000000000000000000000000B2
:104F000000000000000000000000000000000000A1
:104F10000000000000000000000000000000000091
:104F20000000000000000000000000000000000081
:104F30000000000000000000000000000000000071
:104F40000000000000000000000000000000000061
:104F50000000000000000000000000000000000051
:104F60000000000000000000FC1F0000FC1F00000B
:104F700084100000841000008410000084100000E1
:104F800084100000841000000000000000000000F9
:104F90000000000000000000000000000000000011
:104FA0000000000000000000FC1F0000FC1F0000CB
:104FB00084100000841000008410000084100000A1
:104FC000780F000030060000000000000000000024
:104FD00000000000000000000000000000000000D1
:104FE0000000000000000000FC1F0000FC1F00008B
:104FF0000010000000100000001000000010000071
:105000000010000000100000000000000000000080
:105010000000000000000000000000000000000090
:105020000000000000000000FC1F0000F81F00004E
:105030001000000020000000200000001000000010
:10504000F81F0000FC1F000000000000000000002E
:105050000000000000000000080800000C1800001C
:10506000841000008410000084100000780F0000FD
:10507000300600000000000000000000F01F0000EB
:10508000F81F00008400000084000000840000007D
:10509000F81F0000F01F000080070000C00700009C
:1050A000200400001004000008040000FC1F0000A1
:1050B000FC1F00000004000000000000F01F0000C2
:1050C000F81F00008400000084000000840000003D
:1050D000F81F0000F01F0000F81F0000FC1F000078
:1050E00000000000081C0000041E00000411000065
:1050F000841000007C100000381000000000000048
:10510000F01F0000F81F0000840000008400000071
:10511000F81F0000F01F0000F81F0000FC1F000037
:1051200000000000C0030000E003000010020000C7
:1051300008020000FC1F0000FC1F0000000000002F
:10514000F01F0000F81F0000840000008400000031
:10515000F81F0000F01F0000FC1F0000FC1F0000F3
:1051600084100000841000008410000084100000EF
:10517000841000000000000000000000F80F000094
:10518000FC1F0000041000000410000004100000C8
:10519000FC1F0000F80F00000000000000000000ED
:1051A000FC1F0000FC1F00008410000084100000A1
:1051B0008410000084100000841000000000000033
:1051C0000000000008000000FC1F0000FC1F0000A1
:1051D0000000000000000000FC1F0000FC1F000099
:1051E000841000008410000084100000841000006F
:1051F00084100000000000000000000008180000FB
:105200000C1C0000041200000411000084100000B7
:105210007C10000038100000FC1F0000FC1F000084
:10522000841000008410000084100000841000002E
:1052300084100000000000000000000008080000CA
:105240000C1800008410000084100000841000007E
:10525000780F000030060000FC1F0000FC1F00005B
:1052600084100000841000008410000084100000EE
:10527000841000000000000080070000C00700004C
:10528000200400001004000008040000FC1F0000BF
:10529000FC1F000000040000FC1F0000FC1F0000B9
:1052A00084100000841000008410000084100000AE
:1052B0008410000000000000000000007C080000D6
:1052C0007C1800004410000044100000441000004E
:1052D000840F000004070000FC1F0000FC1F0000FA
:1052E000841000008410000084100000841000006E
:1052F000841000000000000000000000F80F000013
:10530000FC1F000044100000441000004410000086
:10531000CC1F0000880F0000FC1F0000FC1F0000D5
:10532000841000008410000084100000841000002D
:1053300084100000000000000000000004000000D5
:1053400004000000041E0000041F00008400000090
:105350007C0000003C000000000000000000000095
:10536000FC1F0000FC1F00008410000084100000DF
:1053700084100000780F00003006000000000000DC
:105380000000000008000000FC1F0000FC1F0000DF
:105390000000000000000000FC1F0000FC1F0000D7
:1053A000841000008410000084100000780F0000BA
:1053B0003006000000000000000000000818000097
:1053C0000C1C0000041200000411000084100000F6
:1053D0007C10000038100000FC1F0000FC1F0000C3
:1053E000841000008410000084100000780F00007A
:1053F0003006000000000000000000000808000067
:105400000C180000841000008410000084100000BC
:10541000780F000030060000FC1F0000FC1F000099
:10542000841000008410000084100000780F000039
:10543000300600000000000080070000C0070000E8
:10544000200400001004000008040000FC1F0000FD
:10545000FC1F000000040000FC1F0000FC1F0000F7
:10546000841000008410000084100000780F0000F9
:105470003006000000000000000000007C08000072
:105480007C1800004410000044100000441000008C
:10549000840F00000407000000000000000000006E
:1054A000FC1F0000F81F000010000000200000009A
:1054B00010000000F81F0000FC1F000000000000AA
:1054C0000000000008000000FC1F0000FC1F00009E
:1054D0000000000000000000FC1F0000F81F00009A
:1054E000100000002000000010000000F81F000065
:1054F000FC1F000000000000000000000818000071
:105500000C1C0000041200000411000084100000B4
:105510007C100000381000000000000000000000B7
:10552000FC1F0000FC1F0000800000008000000045
:1055300080000000FC1F0000FC1F000000000000B5
:105540000000000008000000FC1F0000FC1F00001D
:105550000000000000000000FC1F0000FC1F000015
:10556000800000008000000080000000FC1F0000A0
:10557000FC1F0000000000000000000008180000F0
:105580000C1C000004120000041100008410000034
:105590007C10000038100000000000000000000037
:1055A0000000000000000000F0070000F80F0000FD
:1055B000041000000410000084100000841000009B
:1055C000841F0000081F0000000000000000000011
:1055D00000000000000000000000000000000000CB
:1055E00000000000000000000000000000000000BB
:1055F00008000000FC1F0000FC1F0000000000006D
:10560000000000000000000000000000000000009A
:10561000000000000000000000000000000000008A
:105620000000000000000000081800000C1C000032
:105630000412000004110000841000004410000057
:105640003C100000181000000000000000000000E6
:10565000000000000000000000000000000000004A
:105660000000000000000000080800000C18000006
:1056700084100000841000008410000084100000DA
:10568000780F00003006000000000000000000005D
:10569000000000000000000000000000000000000A
:1056A000000000000000000000070000800700006C
:1056B0004004000020040000100400000804000062
:1056C000FC1F0000FC1F00000004000000000000A0
:1056D00000000000000000000000000000000000CA
:1056E00000000000000000007C0800007C180000A2
:1056F000441000004410000044100000441000005A
:10570000840F0000040700000000000000000000FB
:105710000000000000000000000000000000000089
:105720000000000000000000F80F0000FC1F000057
:105730004410000044100000441000004410000019
:10574000CC1F0000880F00000000000000000000D7
:105750000000000000000000000000000000000049
:105760000000000000000000040000000400000031
:10577000041E0000041F000084000000440000001C
:105780003C0000001C0000000000000000000000C1
:105790000000000000000000000000000000000009
:1057A0000000000000000000780F0000FC1F000057
:1057B0008410000084100000841000008410000099
:1057C000FC1F0000780F0000000000000000000037
:1057D00000000000000000000000000000000000C9
:1057E000000000000000000078080000FC18000025
:1057F0008410000084100000841000008410000059
:10580000FC1F0000F80F0000000000000000000076
:105810000000000000000000000000000000000088
:1058200008000000FC1F0000FC1F0000000000003A
:1058300000000000F80F0000FC1F00000410000032
:105840000410000004100000FC1F0000F80F00000E
:105850000000000000000000000000000000000048
:10586000000000000000000008000000FC1F000015
:10587000FC1F000000000000000000000800000005
:10588000FC1F0000FC1F00000000000000000000E2
:105890000000000000000000000000000000000008
:1058A00008000000FC1F0000FC1F000000000000BA
:1058B00000000000081800000C1C0000041200008A
:1058C00004110000841000007C100000381000005B
:1058D00000000000000000000000000000000000C8
:1058E00008000000FC1F0000FC1F0000000000007A
:1058F00000000000080800000C18000084100000E0
:105900008410000084100000780F000030060000B2
:105910000000000000000000000000000000000087
:1059200008000000FC1F0000FC1F00000000000039
:105930000000000080070000C007000020040000F5
:105940001004000008040000FC1F0000FC1F000001
:105950000004000000000000000000000000000043
:1059600008000000FC1F0000FC1F000000000000F9
:10597000000000007C0800007C18000044100000BB
:105980004410000044100000840F000004070000D1
:105990000000000000000000000000000000000007
:1059A00008000000FC1F0000FC1F000000000000B9
:1059B00000000000F80F0000FC1F00004410000071
:1059C0004410000044100000CC1F0000880F0000AD
:1059D00000000000000000000000000000000000C7
:1059E00008000000FC1F0000FC1F00000000000079
:1059F000000000000400000004000000041E00007D
:105A0000041F0000840000007C0000003C00000037
:105A10000000000000000000000000000000000086
:105A200008000000FC1F0000FC1F00000000000038
:105A300000000000780F0000FC1F00008410000030
:105A40008410000084100000FC1F0000780F00008C
:105A50000000000000000000000000000000000046
:105A600008000000FC1F0000FC1F000000000000F8
:105A70000000000078080000FC18000084100000FE
:105A80008410000084100000FC1F0000F80F0000CC
:105A90000000000000000000081800000C1C0000BE
:105AA0000412000004110000841000007C100000AB
:105AB000381000000000000000000000F80F000097
:105AC000FC1F00000410000004100000041000007F
:105AD000FC1F0000F80F00000000000000000000A4
:105AE000081800000C1C0000041200000411000043
:105AF000841000007C10000038100000000000003E
:105B00000000000008000000FC1F0000FC1F000057
:105B10000000000000000000081800000C1C00003D
:105B20000412000004110000841000007C1000002A
:105B300038100000000000000000000008180000FD
:105B40000C1C00000412000004110000841000006E
:105B50007C10000038100000081800000C1C000029
:105B60000412000004110000841000007C100000EA
:105B700038100000000000000000000008080000CD
:105B80000C18000084100000841000008410000035
:105B9000780F000030060000081800000C1C000000
:105BA0000412000004110000841000007C100000AA
:105BB000381000000000000080070000C00700004F
:105BC000200400001004000008040000FC1F000076
:105BD000FC1F000000040000081800000C1C00005E
:105BE0000412000004110000841000007C1000006A
:105BF0003810000000000000000000007C080000D9
:105C00007C18000044100000441000004410000004
:105C1000840F000004070000081800000C1C00009E
:105C20000412000004110000841000007C10000029
:105C3000381000000000000000000000F80F000015
:105C4000FC1F00004410000044100000441000003D
:105C5000CC1F0000880F0000081800000C1C00007A
:105C60000412000004110000841000007C100000E9
:105C700038100000000000000000000004000000D8
:105C800004000000041E0000041F00008400000047
:105C90007C0000003C000000081800000C1C000004
:105CA0000412000004110000841000007C100000A9
:105CB000381000000000000000000000780F000015
:105CC000FC1F0000841000008410000084100000FD
:105CD000FC1F0000780F0000081800000C1C0000DA
:105CE0000412000004110000841000007C10000069
:105CF00038100000000000000000000078080000DC
:105D0000FC180000841000008410000084100000C3
:105D1000FC1F0000F80F0000080800000C1800002D
